:020000040800F2
:1000000000070020155700084D1000084F10000889
:1000100053100008571000085B1000080000000093
:100020000000000000000000000000005F10000859
:100030006110000800000000631000082D57000840
:100040002F5700082F5700082F5700082F57000878
:100050002F5700082F5700082F5700082F57000868
:100060002F5700082F5700082F5700082F57000858
:100070002F5700082F5700082F5700082F57000848
:100080002F5700082F5700082F5700082F57000838
:100090002F5700082F5700082F5700082F57000828
:1000A0002F5700082F5700082F5700082F57000818
:1000B000492600082F5700082F5700082F5700081F
:1000C0002F5700082F5700082F5700082F570008F8
:1000D0002F5700082F5700082F5700082F570008E8
:1000E0002F5700082F5700082F5700082F570008D8
:1000F0002F5700082F5700082F5700082F570008C8
:100100002F5700082F5700082F5700082F570008B7
:100110002F5700082F5700082F5700082F570008A7
:100120002F5700082F5700082F5700082F57000897
:100130002F5700082F5700082F5700082F57000887
:100140002F5700082F5700082F5700082F57000877
:100150002F5700082F5700082F5700082F57000867
:100160002F5700082F5700082F5700082F57000857
:100170002F5700082F5700082F5700082F57000847
:100180002F5700082F57000800F002F800F04DF834
:100190000AA090E8000C82448344AAF10107DA45E2
:1001A00001D100F042F8AFF2090EBAE80F0013F0E7
:1001B000010F18BFFB1A43F0010318479C1B0200F4
:1001C000BC1B0200103A24BF78C878C1FAD8520785
:1001D00024BF30C830C144BF04680C6070470000C1
:1001E0000023002400250026103A28BF78C1FBD840
:1001F000520728BF30C148BF0B607047662908F01E
:10020000CC82002070471FB508F0BDFA9DE80300BE
:1002100006F0D8FB06F048FE04000020002107F09D
:100220004BFCE0601FBD10B510BD06F05FFF11462E
:10023000FFF7E9FF00F022F806F07DFF03B4FFF7B7
:10024000F2FF03BC06F0EEFF80ED0D0A704780ED73
:10025000000A704790ED020A704790ED030A70475C
:1002600090ED040A704790ED050A7047014691F839
:1002700039007047014691F838007047134800680C
:1002800040F00400114908604FF4A06005F062FAE4
:10029000A82005F0BDF904F0F0F847F67C5003F013
:1002A00054FF012005F01DFF00BF05F03FFF0028AF
:1002B000FBD0012005F015FF00BF05F037FF002837
:1002C000FBD001E001F03DF8FCE7000030380240CF
:1002D00070B505460E4614463146284603F007FF22
:1002E000204603F0CFFE70BD2DE9F05F04460D46B9
:1002F00016461F46301B401C1FFA80FA781B401C14
:100300001FFA80FB3B4632462946204603F0C9FED1
:100310004FF000080FE04FF0000906E00A9803F0E4
:10032000B1FE09F101001FFA80F9D145F6DB08F1B1
:1003300001001FFA80F8D845EDDBFE484088401EDA
:1003400083B2FC480088401E82B20021084603F0B8
:10035000A8FEBDE8F09F2DE9FF4F85B081468A4693
:100360000020049003900798A0EB09050898A0EBE3
:100370000A06CDF80890CDF804A0002D01DD012774
:1003800005E00DB9002702E04FF0FF376D42002E67
:1003900002DD4FF0010806E016B94FF0000802E058
:1003A0004FF0FF387642B54201DD2C4600E034467E
:1003B0004FF0000B21E0019A91B2029A90B203F043
:1003C000A0FE0498284404900398304403900498B5
:1003D000A04205DD0498001B049002983844029066
:1003E0000398A04205DD0398001B03900198404448
:1003F00001900BF101001FFA80FB601C8345DADDE0
:1004000009B0BDE8F08F2DE9F04104460D461646CF
:100410001F462B46324629462046FFF79CFF3B46A7
:10042000224629462046FFF796FF3B46324639468C
:100430002046FFF790FF3B46324629463046FFF7FD
:100440008AFFBDE8F081F8B504460D4616461F4602
:10045000B94800883B463246294600902046FFF7BF
:1004600043FFF8BD2DE9F04104460D4616461F46F0
:10047000DDF81880EA1991B2A21990B24246FFF74E
:1004800027FFEA1991B2A21B90B24246FFF720FF64
:10049000EA1B91B2A21990B24246FFF719FFEA1B7C
:1004A00091B2A21B90B24246FFF712FFAA1991B275
:1004B000E21990B24246FFF70BFFAA1991B2E21B74
:1004C00090B24246FFF704FFAA1B91B2E21990B224
:1004D0004246FFF7FDFEAA1B91B2E21B90B24246D4
:1004E000FFF7F6FEBDE8F0812DE9FF4F81B08246AF
:1004F00017469846DDF838B0002445464FEA4800D4
:10050000C0F10306BBF1000F1FD01BE0A14608E0BD
:100510004B462246009750460299FFF7A3FF09F188
:100520000109A945F4DD002E04DA042000FB046073
:10053000861D06E0601B042101FB006000F10A0635
:100540006D1E641CAC42E1DD18E015E02B4622462E
:10055000009750460299FFF785FF002E04DA042029
:1005600000FB0460861D06E0601B042101FB0060A7
:1005700000F10A066D1E641CAC42E7DD05B0BDE863
:10058000F08F2DE9F04704460D4616461F46DDE97B
:1005900008893B46324629462046FFF7DCFE4B469B
:1005A000424639463046FFF7D6FE2B46224649469C
:1005B0004046FFF7D0FEBDE8F08702880B88038035
:1005C0000A8070472DE9FF4F85B000260027BDF84F
:1005D0001800BDF82010884207DD08A906A8FFF71B
:1005E000ECFF07A905A8FFF7E8FFBDF82000BDF85C
:1005F0004C10884207DD08A913A8FFF7DEFF07A902
:1006000012A8FFF7DAFFBDF81800BDF820108842E5
:1006100007DD08A906A8FFF7D0FF07A905A8FFF77F
:10062000CCFFBDF81800BDF84C10884238D1BDF899
:10063000140003900490BDF81C00BDF8101088420F
:1006400003DABDF81C00049008E0BDF81C00BDF8FA
:100650000C10884202DDBDF81C000390BDF8480074
:10066000BDF81010884203DABDF84800049008E095
:10067000BDF84800BDF80C10884202DDBDF8480006
:1006800003902D4800880090BDF81830BDF80C206C
:100690001946BDF81000FFF727FE09B0BDE8F08F3E
:1006A000BDF81C00BDF81410A0EB010BBDF8200034
:1006B000BDF81810401A0290BDF84800BDF814109B
:1006C000451ABDF84C00BDF81810A0EB0109BDF8A3
:1006D0004800BDF81C10A0EB010ABDF84C00BDF8A5
:1006E0002010401A0190BDF82000BDF84C1088423F
:1006F00002D1BDF8208004E0BDF82000401E1FFAA2
:1007000080F8BDF818402CE0029896FBF0F0BDF898
:100710001410084480B2049097FBF9F0BDF814104F
:10072000084480B203905E442F44BDF81000BDF829
:100730000C1003E0900000202C000020884203DD14
:1007400003A904A8FFF739FFFE480088234600905C
:10075000BDF80C202146BDF81000FFF7C5FD601C58
:1007600084B24445D0DDBDF82000201A00FB0AF613
:10077000BDF81800201A00FB05F727E0019896FB4A
:10078000F0F0BDF81C10084480B2049097FBF9F01B
:10079000BDF81410084480B2039056442F44BDF8AD
:1007A0001000BDF80C10884203DD03A904A8FFF770
:1007B00004FFE448008823460090BDF80C20214641
:1007C000BDF81000FFF790FD601C84B2BDF84C002E
:1007D0008442D3DD00BF60E72DE9FF4F83B081463F
:1007E0008A469346DDE91064D64800880290A6F157
:1007F0002000C6B204EBD47009EB6000401E82B248
:100800000AEB0400401E83B251464846019403F0AF
:1008100048FC129850BB002525E00C2C07D106EBB4
:100820004600C94901EB800010F8058004E0C74884
:1008300000EB061010F8058000270DE008F001001D
:1008400018B1584603F01EFC02E0069803F01AFCAB
:100850004FEA6808781CC7B204EBD471B7EB610F9C
:10086000ECDB681CC5B2A542D7DB2DE0002529E0F2
:100870000C2C07D106EB4600B34901EB800010F8C1
:10088000058004E0B14800EB061010F80580002751
:1008900011E0AC48A0F800B008F0010038B10AEB54
:1008A000050291B209EB070290B203F02AFC4FEA6D
:1008B0006808781CC7B204EBD471B7EB610FE8DBB2
:1008C000681CC5B2A542D3DB9E4902980880A048A7
:1008D0004088401E83B29E480088401E82B200219C
:1008E000084603F0DEFB07B0BDE8F08F2DE9FE43BC
:1008F00006460F4615461C46DDF828801DE0944844
:100900000088401EB04204DB91484088401EB84237
:1009100001DABDE8FE8320788DE821018D48038847
:100920008848028839463046FFF756FF284605EBCF
:10093000D07106EB61018EB2641C20787E2802DC47
:1009400020782028DBDA00BFE3E710B5024601205B
:1009500000E050430B1EA1F10104E1B2F9D110BD3A
:100960002DE9FF4F83B0074691461E46109C4FF07D
:10097000000A002543E0701B401EC1B20A20FFF7A9
:10098000E4FFB9FBF0F00A21B0FBF1F201FB120821
:10099000BAF1000F1BD1701EA84218DDB8F1000F8C
:1009A00013D100202021A346CDE90014029004EBCE
:1009B000DB71491001FB057188B266490B886149FA
:1009C0000A880499FFF708FF17E04FF0010A002199
:1009D00008F13000C0B2A346CDE90141009004EB1C
:1009E000DB71491001FB057188B25A490B885549E2
:1009F0000A880499FFF7F0FE00BF681CC5B2B54233
:100A0000B9DB07B0BDE8F08F2DE9FC5F05468846ED
:100A100091469A46DDF830B00095422001900024BE
:100A20005FE004EB04104C4911F810009BF8001033
:100A3000884253D104EB0410474901EB4000407851
:100A40009BF80110884249D108F10F0083B205F1EB
:100A50000F0082B24146284603F023FB00263BE00C
:100A6000002734E00D9890B904EB04103A4901EBEB
:100A70004000801C805D80213941084018B1484603
:100A800003F000FB21E0504603F0FCFA1DE02D4886
:100A9000A0F8009004EB04102F4901EB4000801CEB
:100AA000805D80213941084018B14146284603F055
:100AB00028FB681C85B20098281A102805D1009DD3
:100AC00008F101001FFA80F803E0781CC7B2082F74
:100AD000C8DB00BF701CC6B2202EC1DB00BF601C8B
:100AE00084B2019884429CDB19484088401E83B23E
:100AF00017480088401E82B20021084603F0D1FA50
:100B0000BDE8FC9F2DE9FC5F0546884691469A4664
:100B1000DDF830B0009507200190002476E004EB6A
:100B2000840000EB44100D4911F810009BF80010F0
:100B3000884268D104EB840000EB4410074901EBC4
:100B400040000DE02C0000209E870008128C000859
:100B5000900000202E00002002920008C69A000893
:100B600040789BF8011088424DD108F1170083B2FC
:100B700005F1170082B24146284603F092FA00269A
:100B80003FE0002738E00D98A0B904EB840000EBAB
:100B90004410FB4901EB4000801C805D80213941FD
:100BA000084018B1484603F06DFA23E0504603F0C0
:100BB00069FA1FE0F348A0F8009004EB840000EB12
:100BC0004410EF4901EB4000801C805D80213941D9
:100BD000084018B14146284603F093FA681C85B2D4
:100BE0000098281A182805D1009D08F101001FFA65
:100BF00080F803E0781CC7B2082FC4DB00BF701C6C
:100C0000C6B2482EBDDB00BF601C84B2019884428E
:100C100085DBDD484088401E83B2DB480088401EEB
:100C200082B20021084603F03CFABDE8FC9F2DE9A2
:100C3000FC5F0546884691469A46DDF830B000953F
:100C40000420019000245FE004EB8410CF4911F8E8
:100C500010009BF80010884253D104EB8410CB495C
:100C600001EB400040789BF80110884249D108F11F
:100C70001F0083B205F11F0082B24146284603F0EF
:100C800010FA00263BE0002734E00D9890B904EB01
:100C90008410BE4901EB4000801C805D80213941F9
:100CA000084018B1484603F0EDF921E0504603F042
:100CB000E9F91DE0B348A0F8009004EB8410B349B3
:100CC00001EB4000801C805D80213941084018B153
:100CD0004146284603F015FA681C85B20098281A88
:100CE000202805D1009D08F101001FFA80F803E0DB
:100CF000781CC7B2082FC8DB00BF701CC6B2802E9C
:100D0000C1DB00BF601C84B2019884429CDB9E481A
:100D10004088401E83B29C480088401E82B2002159
:100D2000084603F0BEF9BDE8FC9F2DE9FF4F83B0F4
:100D3000064688469146DDE91147109DB2464FF0C0
:100D4000000B71E0BBF1000F40D104EBD4718E4A6F
:100D50001288A2EB6101B14204DB8B494988091B6F
:100D6000414502DA07B0BDE8F08F2878802802DD1F
:100D70004FF0010B58E028780D2806D108EB04004D
:100D80001FFA80F856466D1C1EE0102C0DDD102158
:100D900028788DE883004A4641463046069BFFF797
:100DA0001BFD06F1080086B20EE028788DE8910060
:100DB0004A4641463046069BFFF70EFD204604EBAF
:100DC000D07106EB61018EB26D1C2DE06E4800887B
:100DD000001BB04204DB6C484088001B404500DA31
:100DE000C0E74FF0000B202C08D1CDE900574A4650
:100DF00041463046069BFFF71AFF12E0182C08D137
:100E0000CDE900574A4641463046069BFFF77AFE39
:100E100007E0CDE900574A4641463046069BFFF7BA
:100E2000F3FDAD1C301986B2287800288AD100BFA6
:100E300098E72DE9FE4F0E4617469846DDE90D9AD4
:100E40000C9C204605F080FD85B24F490988A1EB36
:100E5000C50000EBD071C1F34F0B43463A46314613
:100E600058468DE81006FFF760FFBDE8FE8F2DE9BC
:100E7000F04706460F46154607F1270083B206F1F4
:100E8000270082B23946304603F00BF900240AE00D
:100E900015F8149005EB440090F8018049EA082009
:100EA00003F0F0F8641CB4F5C86FF1DB36484088F5
:100EB000401E83B234480088401E82B2002108469A
:100EC00003F0EFF8BDE8F0872DE9F04706460F463E
:100ED000154607F14F0083B206F14F0082B2394642
:100EE000304603F0DEF800240AE015F8149005EB14
:100EF000440090F8018049EA082003F0C3F8641C1C
:100F0000B4F5C85FF1DB20484088401E83B21E481C
:100F10000088401E82B20021084603F0C2F8BDE8F6
:100F2000F0872DE9F04706460F46154607F14500C4
:100F300083B206F1450082B23946304603F0B1F87B
:100F400000240AE015F8149005EB440090F80180A5
:100F500049EA082003F096F8641C41F224308442E8
:100F6000F0DB09484088401E83B207480088401ED5
:100F700082B20021084603F094F8BDE8F087000033
:100F8000C69A00082C00002090000020CC9C00088D
:100F90002DE9F04706460F46154607F13B0083B2A0
:100FA00006F13B0082B23946304603F07AF800245D
:100FB0000AE015F8149005EB440090F8018049EA26
:100FC000082003F05FF8641CB4F5616FF1DB1E4884
:100FD0004088401E83B21C480088401E82B2002117
:100FE000084603F05EF8BDE8F0872DE9F0470646B5
:100FF0000F46154607F1A90083B206F1A90082B297
:101000003946304603F04DF800240AE015F81490F4
:1010100005EB440090F8018049EA082003F032F81B
:10102000641C47F2E4008442F0DB07484088401E1D
:1010300083B205480088401E82B20021084603F0B2
:1010400030F8BDE8F087000090000020704700BF36
:10105000FEE700BFFEE700BFFEE700BFFEE7704708
:10106000704770470CB500200190009076480068EA
:1010700040F480307449086000BF7348006800F491
:10108000003000900198401C0190009818B9019818
:10109000B0F5A04FF1D16C48006800F4003010B1F9
:1010A0000120009001E0002000900098012846D126
:1010B00065484030006840F0805063494031086026
:1010C0006248006840F44040604908605E4808306B
:1010D00000685D49083108600846006840F4004037
:1010E00008600846006840F4A05008605848091F8E
:1010F0000860081F006840F08070091F086000BF8A
:101100005148006800F000700028F9D040F20570E6
:10111000504908604C480830006820F003004A49F4
:10112000083108600846006840F00200086000BF0F
:1011300045480830006800F00C000828F8D10CBDC4
:1011400010B54548006840F47000434908603E48C7
:10115000006840F001003C49086000203A4908312D
:101160000860394800683D490840374908603C48F4
:10117000091D0860081F006820F48020091F08600E
:10118000002031490C310860FFF76CFF4FF0006020
:1011900031498039086010BD70B50020002202235B
:1011A00000240221284D08352D6805F00C0020B1DF
:1011B000042806D0082834D107E02A4D2A4E35608D
:1011C00033E02A4D284E35602FE01F4D2D1D2D6830
:1011D000C5F380541C4D2D1D2D6805F03F0154B101
:1011E000224DB5FBF1F5184E361D3668C6F388164C
:1011F00005FB06F209E01B4DB5FBF1F5124E361D5D
:101200003668C6F3881605FB06F20F4D2D1D2D68B6
:10121000C5F301456D1C6B00B2FBF3F5124E356052
:1012200003E0104D104E356000BF00BF064D08357D
:101230002D68C5F303150E4E705D0B4D2D68C5402E
:10124000094E356070BD000000380240007000405B
:10125000085A4007003C024088ED00E0FFFFF6FE20
:10126000103000240024F4000000002000127A0056
:101270000400002010B502684C000123A3401A436B
:101280000260F74A136801228A409343F44A1360CC
:10129000121D12684B005B1C01249C402243F04B42
:1012A0001B1D1A6010BD10B502464B00012098406E
:1012B0004B005B1C01249C402043E94B1B1F1B6817
:1012C0008343E748001F036010BDF0EE401A30EE84
:1012D000C10AB4EEE10AF1EE10FA02DDB7EE000A3F
:1012E000704730EEE12A82EE010AF9E7DD48006836
:1012F00040F00200DB490860DB48006820F4402031
:10130000D9490860D8480C30006840F48020D6499C
:101310000C3108600020D449091D0860091D0860CF
:101320007047D048006840F04000CE4908604FF058
:101330005530CE4908600020091D0860091D08606D
:101340007047D0B09FEDCA0A8DED4C0A0020429044
:101350004FF47A7041903F9000203E903D9038903D
:101360000A203790002035904120349000203290A0
:10137000319030904FF4FA702E9001202D90002083
:101380002C9000BF00BF00BF2B9001202A900020AE
:1013900029902790322025906420249000202390CB
:1013A000229000BF01201F901E9000BF00BF0020B0
:1013B0001D901C900A201B901A90199001201890E3
:1013C0001790169000BF00BF00BF159000BF14908B
:1013D00000201390129000BF00BF00BF119000BF0B
:1013E00000BF00BF00BF0120109000BF64200F901D
:1013F00001200E900D900C900B90002020909D49A4
:1014000008759FED9B0A084680ED060AFFF789FFE5
:10141000FFF76CFF40209549183108800846008886
:1014200040F48070088004F082F8FFF789FE01F034
:10143000B0F900209049086008218948001FFFF793
:1014400032FF07218648001FFFF714FF0C21844854
:10145000001FFFF70FFF0A218148001FFFF70AFF57
:101460004FF48070ADF82C017D48001F4A90802019
:10147000ADF824017A48001F48908014ADF81C0193
:101480007748001F46900015ADF814017448001FFE
:101490004490022144A802F04AFB01F0CDB87548FF
:1014A000406809900020099988479DF8800000282D
:1014B0007ED11F98012874D102F087FF47F67C5037
:1014C00002F043FE6D4A46217820FFF72AFD6C4A60
:1014D0000A211420FFF725FD6A4ADC211420FFF7BA
:1014E00020FD694A5021FA20FFF71BFD674AAA2117
:1014F0007820FFF716FD664AAA21FA20FFF711FDB2
:10150000644ADC214FF4BE70FFF70BFD624A3221C2
:101510004FF4C270FFF705FD604A85214FF4C27099
:10152000FFF7FFFC01205EA3102232210090FA2079
:10153000FFF7DCF910200423009032214FF496705D
:10154000259AFFF70DFA2398012806D156A31022F9
:10155000C82100901E20FFF7C9F9239838B901204F
:1015600053A31022C82100901E20FFF7BFF9229834
:10157000012806D150A31022642100901E20FFF7FD
:10158000B5F92298022807D101204DA31022642129
:1015900000901E20FFF7AAF900201F90322004F0CF
:1015A00099F81E9801280CD110200423009000E027
:1015B00069E132214FF49670259AFFF7D1F90020A6
:1015C0001E902C48007D00F0800010B92A48006869
:1015D0002F902848007D00F0800000283FD025484B
:1015E000008AADF828002348408AADF82A00224836
:1015F00001682F98091A2E98814230D9BDF8280029
:10160000F4380890002801DB089801E0089840426F
:1016100032281CDABDF82A00A0F5D1700990002804
:1016200001DB099801E00998404232280FDA259839
:10163000401C80B225902598C82801DD14202590F3
:10164000259824903C2004F045F801201E90BDF818
:10165000280099380890002836DB089836E09DE08D
:1016600004080240303802400004024000180240E2
:10167000000000003400002018000020D49E000864
:10168000D8EA000890C40008683701082011010852
:10169000B05D01086C83010878CF0108B4A9010886
:1016A000205345543A00000072756E6E696E6700F3
:1016B00073746F7070656400666F72776172640036
:1016C00072657665727365000898404232281CDAAC
:1016D000BDF82A00A0F2AF100990002801DB09989C
:1016E00001E00998404232280FDA2598401E80B266
:1016F00025902598142801DAC82025902598249053
:101700003C2003F0E7FF01201E90BDF82800E338DD
:101710000890002801DB089801E008984042322830
:1017200016DABDF82A0092380990002801DB0998E2
:1017300001E00998404232280ADA01202290F74855
:10174000008840F48070F54908804020891C08809A
:10175000BDF8280078380890002801DB089801E0DF
:1017600008984042322819DABDF82A0091380990C9
:10177000002801DB099801E00998404232280DDA7F
:1017800002202290E548008840F04000E3490880AC
:10179000881C008840F48070891C0880E048007D27
:1017A00000F0C00040286ED1DD48008AADF8280066
:1017B000DB48408AADF82A00BDF82800F4380890CC
:1017C000002801DB089801E00898404232281CDA22
:1017D000BDF82A00A0F5D1700990002801DB099816
:1017E00001E00998404232280FDA2598401C80B267
:1017F00025902598C82801DD14202590259824904F
:10180000C82003F067FF01201E90BDF8280099381A
:101810000890002801DB089801E00898404232282F
:101820001CDABDF82A00A0F2AF100990002801DBF5
:10183000099801E00998404232280FDA2598401EA5
:1018400080B225902598142801DAC8202590259883
:101850002490C82003F03EFF01201E90BDF8280010
:10186000D9380890002801DB089801E00898404228
:10187000322812DABDF82A00A0F2151009900028CB
:1018800002DB099802E041E009984042322804DA7C
:1018900025982490012023901F90BDF828003C3803
:1018A0000890002801DB089801E00898404232289F
:1018B0000FDABDF82A002E380990002801DB0998BC
:1018C00001E009984042322803DA022020900120EA
:1018D0001C90BDF8280078380890002801DB089893
:1018E00001E008984042322810DABDF82A00A0F53D
:1018F00088700990002801DB099801E009984042AE
:10190000322803DA0020239001201F909DF88000E8
:10191000022878D11C98012813D147F67C5002F098
:1019200014FC804A32214FF4C270FFF7FAFA01200A
:101930007DA31022462100909620FEF7D7FF0020BD
:101940001C901898012809D1102004230090C82168
:101950005A201B9AFFF704F80020189017980128C6
:1019600007D1102004230090C82108461A9AFEF7D8
:10197000F7FF1698012808D1102004230090C821F1
:101980004FF49670199AFEF7EBFF6548007D00F062
:10199000C0004028BDD16248008AADF828006048E8
:1019A000408AADF82A00BDF82800F03808900028D9
:1019B00001DB089801E00898404232280FDABDF8B0
:1019C0002A0028380990002801DB099801E00998CD
:1019D0004042322803DA0020209001201F90BDF8F9
:1019E000280084380890002801DB089801E0089856
:1019F0004042322819DABDF82A00993809900028A7
:101A000002DB099802E014E10998404232280CDA1E
:101A10001B98401C1B901B98282801DD0A201B9056
:101A2000322003F057FE01201890BDF828005638E8
:101A30000890002801DB089801E00898404232280D
:101A400018DABDF82A0096380990002801DB0998B9
:101A500001E00998404232280CDA1B98401E1B9086
:101A60001B98002801DC0A201B90322003F032FE74
:101A700001201890BDF828008C380890002801DB60
:101A8000089801E008984042322818DABDF82A0088
:101A9000FF380990002801DB099801E009984042CD
:101AA00032280CDA1A98401C1A901A98282801DD5E
:101AB0000A201A90322003F00DFE01201790BDF885
:101AC00028005B380890002801DB089801E008989E
:101AD0004042322819DABDF82A00A0F58470099036
:101AE000002801DB099801E00998404232280CDA0D
:101AF0001A98401E1A901A98002801DC0A201A90A1
:101B0000322003F0E7FD01201790BDF828009A3835
:101B10000890002812DB089812E000001818024014
:101B200034000020C8F50108454E54455220544861
:101B3000452050415353574F5244000008984042AB
:101B4000322819DABDF82A00A0F5B47009900028EF
:101B500001DB099801E00998404232280CDA199813
:101B6000401C19901998282801DB0A20199032206E
:101B700003F0B0FD01201690BDF828004D38089004
:101B8000002801DB089801E008984042322819DA61
:101B9000BDF82A00A0F5B5700990002801DB09986E
:101BA00001E00998404232280CDA1998401E199039
:101BB0001998002801DC0A201990322003F08AFDD0
:101BC00001201690BDF82800A0F588700890002824
:101BD00001DB089801E008984042322829DABDF874
:101BE0002A00A0F29D100990002801DB099801E06D
:101BF0000998404232281CDA1B980A2808D11A9802
:101C00000A2805D119980A2802D1012020901F9096
:101C10001B980A2805D11A980A2802D119980A286F
:101C200007D00120FEA3142211460090BE20FEF72B
:101C30005DFE9DF8800001287CD11F9801282DD1E0
:101C40000020099047F67C5002F07FFAFC4A0A21F6
:101C50001420FFF766F90120FAA3102296210090C4
:101C60003220FEF743FE0120FAA310224621009005
:101C70007820FEF73BFE0120FAA31022F02100900D
:101C80003220FEF733FE0120F9A3102296210090A6
:101C90004800FEF72BFE00201F9000BF0E98012881
:101CA00009D10F20034600909621A020159AFEF737
:101CB00057FE00200E900D98012809D10F200346F1
:101CC0000090F021A020149AFEF74AFE00200D900B
:101CD0000C98012809D10F20034600904521E620E9
:101CE000109AFEF73DFE00200C900B9801280AD1B7
:101CF0000C200346009096214FF4C3700F9AFEF714
:101D00002FFE00200B90DD48007D00F0C000402831
:101D100092D1DA48008AADF82800D848408AADF858
:101D20002A00BDF82800A0F22F100890002802DB3E
:101D3000089802E055E10898404232280FDABDF8D1
:101D40002A002B380990002801DB099801E0099846
:101D50004042322803DA0020209001201F90BDF875
:101D600028006E380890002801DB089801E00898E8
:101D70004042322818DABDF82A004D380990002870
:101D800001DB099801E00998404232280CDA1498E6
:101D9000401C14901498102801D1002014900120A8
:101DA0000D90322003F096FCBDF82800783808909A
:101DB000002801DB089801E00898404232281ADA2E
:101DC000BDF82A00BF380990002801DB099801E01E
:101DD0000998404232280EDA1498401E1490149844
:101DE00010F1100F02DC6FF00F00149001200D9025
:101DF000322003F06FFCBDF82800CF38089000288F
:101E000001DB089801E008984042322818DABDF852
:101E10002A0041380990002801DB099801E009985F
:101E2000404232280CDA1598401C15901598292844
:101E300001DD0020159001200E90642003F04AFC83
:101E4000BDF82800D7380890002801DB089801E089
:101E500008984042322818DABDF82A00EE38099076
:101E6000002801DB099801E00998404232280CDA89
:101E70001598401E15901598002801DC002015903B
:101E800000200E90642003F025FCBDF82800503897
:101E90000890002801DB089801E0089840423228A9
:101EA00012DABDF82A00A0F596700990002801DB2F
:101EB000099801E009984042322805DA9DED140A9C
:101EC000B8EEC00A8DED4C0ABDF82800A0F21B1038
:101ED0000890002801DB089801E008984042322869
:101EE00015DABDF82A009F380990002801DB09980F
:101EF00001E009984042322809DA1098401C1090FD
:101F000010980B2801D10120109001200C90BDF8F1
:101F10002800A0F58E700890002801DB089801E0E9
:101F200008984042322816DABDF82A00A0F22D1097
:101F30000990002801DB099801E009984042322805
:101F400009DA1098401E10901098012801DC012039
:101F5000109001200C90BDF82800C8380890002887
:101F600001DB089801E008984042322816DABDF8F3
:101F70002A00A0F59F700990002801DB099801E074
:101F800009984042322809DA0F98401C0F900F98A8
:101F9000B42801DB64200F9001200B90BDF82800CD
:101FA000C8380890002801DB089801E008984042F2
:101FB000322816DABDF82A00A0F5D870099000285A
:101FC00001DB099801E009984042322809DA0F98AC
:101FD000401E0F900F98642801DC64200F900120B0
:101FE0000B90309890B9389838B9254800683990E6
:101FF000012001F03FFD0120389021480168399807
:10200000091A3798814201D901203090309801286F
:1020100045D1359818B91A480068369032E035E055
:10202000494E434F52524543542050415353574F0A
:1020300052442054525920414741494E000000006B
:10204000D8EA0008464F52574152442054494D4562
:10205000000000005354414E442042592054494D41
:10206000450000004F46465345542054454D50000E
:102070005354414E44425954454D500034000020C1
:102080001800002001F042FD01203590FE48016853
:102090003698091A3498814201D90220309030983C
:1020A00002286BD13298E0BBF748006833900222D7
:1020B0003CA9012001F09CFC9DF8F00000023B903F
:1020C0009DF8F1003B9908433B903B9840103B90B2
:1020D0009DED3B0AB8EE400ADFEDEC0A60EE200A07
:1020E0009FEDEB1A80EE810A8DED3A0A4C9806F0CE
:1020F000D9FACDE906019DED3A0ADFEDE60A80EE58
:10210000201AB7EE000A31EE400A8DED010A01985F
:1021100006F0C8FA9FEDE00B53EC102BCDE902015D
:1021200000E01FE09DED020B51EC100B05F0C0FD2F
:10213000CDE904019DED060B53EC102B9DED040B36
:1021400051EC100B06F0C4F9CDE908019DED080B28
:1021500051EC100B05F0C6FC4E90002001F08AFCFB
:1021600001203290C84801683398091A3198814299
:1021700004D9002038903590329030909DF880003E
:10218000F0BBC7A003C8CDE908019DED4E0A8DED57
:10219000060A2598401F00EE100AF8EEC00A9DEDD1
:1021A0004E0AF4EEC00AF1EE10FA13D29DED4E0A7B
:1021B0002598401D00EE900AF8EEE00AB4EEE00A21
:1021C000F1EE10FA06D29DED250AB8EE400A8DED2B
:1021D000060A21E00F98401F00EE100AF8EEC00A30
:1021E0009DED4E0AF4EEC00AF1EE10FA14D29DED08
:1021F0004E0A0F98401D00EE900AF8EEE00A00E04B
:1022000049E0B4EEE00AF1EE10FA05D29DED0F0AB6
:10221000B8EEC00A8DED060A069806F043FACDE93D
:1022200004019DED040B53EC102B9FA108A804F0B2
:10223000B3FA9DED060ADFED970AB4EEE00AF1EE7F
:1022400010FA01DB052000E0042007900020219017
:1022500019E00021102208A8219BC05CCDE90121D2
:1022600000904FF4C87101EBC30080B20590904814
:102270000388904802884FF487710598FEF7ACFAFE
:102280002198401C2190219907988142E1DB01208F
:1022900003F020FA00BF9DF88000012842D180A001
:1022A00003C8CDE908014E9806F0FCF9CDE9040118
:1022B0009DED040B53EC102B7BA108A804F06CFAE5
:1022C0009DED4E0ADFED730AB4EEE00AF1EE10FA6E
:1022D00001DB052000E0042007900020219019E098
:1022E0000021102208A8219BC05CCDE901210090AB
:1022F0004FF4C87101EBC30080B206906C480388AC
:102300006C4802884FF487710698FEF765FA2198A9
:10231000401C2190219907988142E1DB012003F0C4
:10232000D9F900BF239801287ED124981E3800EEE9
:10233000100AF8EEC00A9DED4E0AF4EEC00AF1EE66
:1023400010FA05DB5C48008840F480405A49088058
:1023500024981E3800EE100AF8EEC00A9DED4E0AD1
:10236000F4EEC00AF1EE10FA3FD2DDED4E0A9DED1B
:10237000240AB8EE400AF4EEC00AF1EE10FA34D2A4
:102380003D98A8B9429850B93F48006843904A48E0
:10239000008840F4804148480180012042903A483A
:1023A00001684398091A4198814201D901203D9062
:1023B0003D98012819D13E9860B933480068409093
:1023C0003D48801C008840F480413B48801C0180CF
:1023D00001203E902C4801684098091A3F9881429C
:1023E00003D900203D9042903E90DDED4E0A9DEDD8
:1023F000240AB8EE400AF4EEC00AF1EE10FA07DB48
:102400002D48801C008840F480412B48801C0180AE
:102410002A48006800F4007050B92B98401C2B909B
:102420002B980A2807D100E0DCE000202D9002E084
:1024300000202B9000BF2498401F00EE100AF8EEF9
:10244000C00A9DED4E0AF4EEC00AF1EE10FA0ED26B
:102450002498401F00EE100AF8EEC00A9DED4D0AC8
:10246000F4EEC00AF1EE10FA01DB012011909DEDAF
:102470004E0A8DED4D0A1198012803D102480068DB
:102480000020119025981BE0180000200000D74381
:10249000000000470000C8428F17D2E1218C6F3F37
:1024A000202020202020000025332E31660000004F
:1024B0002E0000202C0000201818024010040240BA
:1024C000401F00EE100AF8EEC00A9DED4E0AF4EE31
:1024D000C00AF1EE10FA3CD29DED4E0A2598401D3F
:1024E00000EE900AF8EEE00AB4EEE00AF1EE10FA1F
:1024F0002FD22D9868BB2C9890B950480068269030
:102500004F48008840F480714D4801804021801C74
:1025100001804FF47A7115984843129001202C9055
:10252000464801682698091A1298814201D901206B
:102530002D902D9801280CD14148008840F48071DD
:102540003F48018040203E49088000202C90012017
:1025500011902498401F00EE100AF8EEC00A9DED7D
:102560004E0AF4EEC00AF1EE10FA3BD89DED4E0A89
:102570002498401D00EE900AF8EEE00AB4EEE00A5E
:10258000F1EE10FA2ED82F48006800F4007048B31E
:102590002A98012826D1299858B9284800682890F7
:1025A000284800684EF66021109848432790012083
:1025B0002990224801682898091A2798814201D950
:1025C00002202A902A98022804D10F9880B22490E1
:1025D00003202A902A98032804D1012013902A90DE
:1025E00000202990139801281CD10F98401F00EE5D
:1025F000100AF8EEC00A9DED4E0AF4EEC00AF1EEA4
:1026000010FA0FD80F48006800F4007050B900BFEE
:102610000C48006800F400700028F9D02598249038
:1026200000201390239838B90548801C008840F496
:1026300080400349891C0880FEF731BF1800002044
:10264000181802401004024010B54FF6FE704FF00B
:10265000804108829A480068401C9949086099485E
:10266000006820B197480068401E96490860AFF3A3
:102670000080002438E0944850F8240090B3924839
:1026800050F82400007B68B38F4850F8240080681D
:1026900040B38D4850F824008168491E8A4850F89C
:1026A00024008160884850F824008068D0B9864AA8
:1026B00052F824205069844A52F82420116988472E
:1026C000814850F8240001687F4850F82400816058
:1026D0007D4850F82400406820B900217A4850F81D
:1026E00024000173601CC4B27748001F0078A04228
:1026F000C1DC10BD00B58BB001A94FF0804000F0E7
:10270000EFF89FED720B01A800F035F94FF0804013
:1027100000F096F90020ADF82800ADF8220040F254
:10272000E73009906B4901980968B1FBF0F06A49FC
:10273000484368490968B1FBF0F0401E80B2ADF82B
:10274000200000208DF82A0008A94FF0804000F0FA
:102750002CFB4FF08040808940F001004FF0804119
:1027600088811C208DF81C0001208DF81F0000209E
:102770008DF81D008DF81E0007A802F0F0FF4FF045
:102780008040008840F001004FF0804108800BB08D
:1027900000BD10B5FFF7AEFF01205049087010BD15
:1027A0004E48007800B970474FF08040008840F0F4
:1027B00001004FF08041088000BFF4E74FF08040F7
:1027C000008820F001004FF08041088070472DE91B
:1027D000F04705460E4617469846DDF820903A48E1
:1027E000001F0078052802DB0020BDE8F0871820D4
:1027F00003F07CFF04460CB90020F6E72560206852
:10280000A06066602773C4F81080C4F814902E4846
:10281000001F01780078401C2B4A121F1070101DF9
:1028200040F821402046E0E72DE9F041064600242B
:1028300007E0254850F82400B04200D106E0601CB3
:10284000C4B22148001F0078A042F2DC00BF1E483D
:10285000001F0078A04201D1BDE8F0811A4850F86D
:10286000247000BFEFF31080054672B607E01648EB
:10287000611C50F8211040F82410601CC4B21248AA
:10288000001F0078401EA042F1DC0F48001F0078B6
:10289000401E0D49091F087005B962B6384603F09D
:1028A00054FF00BFD8E70021017370470121017375
:1028B00070470168816070474160704701607047F0
:1028C000180000201C0000207C00002000000000F8
:1028D00080842E410000002040420F002400002090
:1028E0007FB504460D46684603F0DBFC4FF6FF70EB
:1028F000A860B4F1804F02D0C648844207D1039843
:1029000028604FF0FF306860002004B070BDC248FE
:1029100084420BD0C148844208D0C148844205D0CB
:10292000C048844202D0C048844206D10198286041
:102930004FF6FF7068600020E7E7BC48844211D082
:10294000BB4884420ED0BB4884420BD0BA48844274
:1029500008D0BA48844205D0B948844202D0B94868
:10296000844206D1039828604FF6FF70686000200B
:10297000CBE70220C9E710B52DED068B0446B0EE7B
:10298000408AF0EE608A206805F053FB41EC190B99
:1029900053EC182B05F060FB07D200202061E060AB
:1029A00060610320BDEC068B10BD9FEDA70B53ECBF
:1029B000102B51EC180B05F0D3FA05D10020206143
:1029C000E06060610420EDE76068B0F5803F02D20E
:1029D0006068401C60600020206100BF2069401CCE
:1029E0002168B1FBF0F0E060E06805F022FB41EC0B
:1029F0001A0B53EC182B05F05BF941EC190B05F0A1
:102A0000EBFAE0602069401C20616168E068884260
:102A100004D9A068401C21698142DFD9A068401C0C
:102A20002169814205D900202061E06060610420B5
:102A3000B8E751EC180B05F0CFFA60610020B1E760
:102A400010B504467448844204D10121084603F0BD
:102A500053FD66E0B4F1804F04D10121084603F034
:102A60003AFD5EE07148844204D10121022003F066
:102A700032FD56E06E48844204D10121042003F067
:102A80002AFD4EE06348844204D10121082003F06E
:102A900022FD46E06748844204D10121102003F062
:102AA0001AFD3EE06448844204D10121202003F055
:102AB00012FD36E05948844204D10121022003F07E
:102AC0001BFD2EE05648844204D10121080403F086
:102AD00013FD26E05348844204D10121480403F049
:102AE0000BFD1EE05048844204D10121880403F00C
:102AF00003FD16E05148844204D10121402003F037
:102B0000EAFC0EE04E48844204D10121802003F00B
:102B1000E2FC06E04B48844203D10121801503F01A
:102B2000DAFC002010BD10B504463B48844204D1B5
:102B30000021012003F0E0FC69E0B4F1804F04D1F2
:102B40000021012003F0C7FC61E03848844204D131
:102B50000021022003F0BFFC59E03548844204D133
:102B60000021042003F0B7FC51E02A48844204D13C
:102B70000021082003F0AFFC49E02E48844204D134
:102B80000021102003F0A7FC41E02B48844204D12F
:102B90000021202003F09FFC39E02048844204D12A
:102BA0000021022003F0A8FC31E01D48844205D139
:102BB00000214FF4803003F09FFC28E01948844244
:102BC00005D100214FF4003003F096FC1FE01648B9
:102BD000844205D100214FF4802003F08DFC16E0E3
:102BE0001648844204D10021402003F074FC0EE01A
:102BF0001348844204D10021802003F06CFC06E0DD
:102C00001048844203D10021801503F064FC0020A9
:102C100010BD0000000C0040000001400004014015
:102C200000400140004401400048014000040040D1
:102C30000008004000100040001400400018004050
:102C4000001C0040002000400000000000000000C8
:102C500010B50446FE48844208D10121084603F01D
:102C6000A0FC0021012003F09CFC9DE0B4F1804F0A
:102C700008D10121084603F083FC0021012003F064
:102C80007FFC91E0F348844208D10121022003F047
:102C900077FC0021022003F073FC85E0EE488442BB
:102CA00008D10121042003F06BFC0021042003F073
:102CB00067FC79E0E948844208D10121082003F04B
:102CC0005FFC0021082003F05BFC6DE0E4488442D7
:102CD00008D10121102003F053FC0021102003F043
:102CE0004FFC61E0DF48844208D10121202003F03D
:102CF00047FC0021202003F043FC55E0DA488442E1
:102D000008D10121022003F04CFC0021022003F035
:102D100048FC49E0D548844209D10121080403F068
:102D200040FC00214FF4803003F03BFC3CE0D048F5
:102D3000844209D10121480403F033FC00214FF4FF
:102D4000003003F02EFC2FE0CA48844209D1012153
:102D5000880403F026FC00214FF4802003F021FCBE
:102D600022E0C548844208D10121402003F008FC3C
:102D70000021402003F004FC16E0C048844208D142
:102D80000121802003F0FCFB0021802003F0F8FBF0
:102D90000AE0BB48844207D10121801503F0F0FB13
:102DA0000021A01503F0ECFB10BD00220288A84B07
:102DB00098420ED0AC4B98420BD0B0F1804F08D067
:102DC000A44B984205D0A44B984202D0A34B984202
:102DD00004D14FF68F731A404B881A43A04B984288
:102DE00007D0A04B984204D04FF6FF431A400B89FE
:102DF0001A4302804B68C3620B880385944B984248
:102E000002D0994B984201D18B7A038601238382A9
:102E100070474FF0FF314160002101800181418006
:102E2000817270470185828270470A4600210188BD
:102E30004FF68F731940114301807047416270470C
:102E4000C16270470146486A70470146088D704765
:102E500021B1028842F00202028004E002884FF6AB
:102E6000FD731A400280704721B1028842F00402CB
:102E7000028004E002884FF6FB731A40028070471C
:102E800021B1028842F08002028004E002884FF6FD
:102E90007F731A400280704702884FF6F7731A401A
:102EA000028002880A430280704702884FF6FF437F
:102EB0001A40028002880A430280704721B10288CA
:102EC00042F00102028004E002884FF6FE731A40CD
:102ED0000280704770B5002400220023058C4FF655
:102EE000FE7635400584028C8388048B4FF68F75FF
:102EF0002C40B51E2C400D882C43751E2A408D8910
:102F00002A434D882A43524DA84202D0564DA8422A
:102F100013D14FF6F7752A40CD892A434FF6FB753A
:102F20002A408D882A434FF6FF652B404FF6FF5508
:102F30002B400D8A2B434D8A2B43838004838D685D
:102F40004563028470BD70B5002400220023058C07
:102F50004FF6EF7635400584028C8388048B48F663
:102F6000FF752C404FF6FF452C400D884FF6FF763D
:102F700006EA05252C434FF6DF752A408D8906EABF
:102F800005152A434D8806EA05152A43304DA84207
:102F900002D0354DA8421DD14FF67F752A40CD890C
:102FA0004FF6FF7606EA05152A434FF6BF752A400D
:102FB0008D8806EA05152A434FF6FF352B404FF260
:102FC000FF752B400D8A06EA85052B434D8A06EADC
:102FD00085052B43838004838D688563028470BDDF
:102FE00070B5002400220023058C4FF6FF663540A3
:102FF0000584028C8388848B4FF68F752C404FF6A6
:10300000FC752C400D882C434FF6FF552A408D89C6
:103010004FF6FF7606EA05252A434D8806EA052580
:103020002A430B4DA84202D00F4DA84238D14FF28F
:10303000FF752A40CD894FF6FF7606EA05252A431B
:103040004FF6FF352A408D8806EA05252A4319E008
:10305000000001400004004000080040000C004057
:1030600000100040001400400004014000400140F6
:10307000004401400048014000180040001C00408E
:10308000002000404EF6FF752B404DF6FF752B409B
:103090000D8A06EA05152B434D8A06EA05152B43D2
:1030A000838084838D68C563028470BD70B50022FF
:1030B00000230024058C4EF6FF7635400584038CF2
:1030C0008488828B48F6FF752A404FF6FF452A40D8
:1030D0000D884FF6FF7606EA05252A434DF6FF7563
:1030E0002B408D8906EA05352B434D8806EA0535C8
:1030F0002B43FE4DA84202D0FD4DA84208D14BF60D
:10310000FF752C400D8A4FF6FF7606EA85152C4395
:10311000848082838D680564038470BD00210180F2
:103120004180818081608181C181018241827047BB
:1031300070B50346002000241846183001258D4044
:10314000ACB21D8CA5431D8409B108290AD100EB3E
:10315000610005684FF68F763540056005681543B8
:1031600005600FE00D1FC5F34E052844056848F6BD
:10317000FF763540056005684FF6FF7606EA0226C1
:103180003543056070BD4163704781637047C1631B
:103190007047016470470A460021018B4FF68F7318
:1031A00019401143018370470A460021018B48F6FC
:1031B000FF7319404FF6FF7303EA0223194301839B
:1031C00070470A460021818B4FF68F7319401143D7
:1031D000818370470A460021818B48F6FF731940AE
:1031E0004FF6FF7303EA02231943818370470A46AF
:1031F0000021018B4FF6F77319401143018370478B
:103200000A460021018B4FF2FF7319404FF6FF73FE
:1032100003EA02231943018370470A460021818B88
:103220004FF6F77319401143818370470A46002116
:10323000818B4FF2FF7319404FF6FF7303EA0223AD
:103240001943818370470A460021018B4FF6FB73B7
:1032500019401143018370470A460021018B4FF644
:10326000FF3319404FF6FF7303EA0223194301832A
:1032700070470A460021818B4FF6FB7319401143BA
:10328000818370470A460021818B4FF6FF33194036
:103290004FF6FF7303EA02231943818370470A46FE
:1032A0000021018B4FF67F73194011430183704752
:1032B0000A460021018BC1F30E014FF6FF7303EAAA
:1032C00002231943018370470A460021818B4FF680
:1032D0007F7319401143818370470A460021818B17
:1032E000C1F30E014FF6FF7303EA022319438183F2
:1032F00070470A460021018C4FF6FD7319401143B7
:10330000018470470A460021018C4FF6F77319407B
:103310001143018470470A460021018C4FF6DF7388
:1033200019404FF6FF7303EA0213194301847047F3
:103330000A460021018C4FF67F7319404FF6FF7348
:1033400003EA02131943018470470A460021018CE5
:103350004FF6FF5319404FF6FF7303EA0223194358
:10336000018470470A460021018C4FF2FF73194017
:103370004FF6FF7303EA02231943018470470A469C
:103380000021018C4DF6FF7319404FF6FF7303EADD
:10339000023319430184704730B5002301248C4067
:1033A000A3B2048C9C430484048C02FA01F5ADB2F0
:1033B0002C43048430BD30B5002304248C40A3B2D8
:1033C000048C9C430484048C02FA01F5ADB22C43B6
:1033D000048430BD828B4FF2FF331A408283828B8C
:1033E0004FF6FF7303EA01231A4382837047F0B557
:1033F0000C461546002100220026078C4EF6FF7C65
:1034000007EA0C070784818B028C4FF6FF7707EAE7
:10341000043640F6FF4739404FF6FF7707EA0527A5
:1034200039434FF6FF7707EA0337394345F6FF770D
:103430003A4046F480573A4381830284F0BD828B40
:103440004FF6F3731A408283828B0A43828370475C
:10345000F0B50C461546002100220026078C4FF6D9
:10346000FF6C07EA0C070784818B028C4FF6FF770D
:1034700007EA04264FF60C7739404FF6FF7707EA44
:1034800003172F4339434FF2FF573A4046F48077F2
:103490003A4381830284F0BD028B4FF2FF331A401E
:1034A0000283028B4FF6FF7303EA01231A43028360
:1034B0007047F0B50C461546002100220026078C07
:1034C0004FF6EF7C07EA0C070784018B028C4FF65E
:1034D000FF7707EA041640F6FF4739404FF6FF77BB
:1034E00007EA033739434FF6FF7703E00000014056
:1034F0000004014007EA052739434FF65F773A4059
:1035000046F010073A4301830284F0BD028B4FF668
:10351000F3731A400283028B0A4302837047F0B5AB
:103520000C46154600210022068C4FF6FE773E40E1
:103530000684018B028C4FF60C7631407E1C06EA25
:1035400003162E4331434FF6F576324044F0010620
:10355000324301830284F0BD70B505460C462088D5
:1035600050B92389A28861882846FFF7D8FFE188EF
:103570002846FFF7CBFF25E0208804280AD12389BD
:10358000A28861882846FFF794FFE1882846FFF764
:1035900083FF17E0208808280AD12389A288618840
:1035A0002846FFF755FFE1882846FFF748FF09E066
:1035B0002389A28861882846FFF719FFE1882846F9
:1035C000FFF708FF70BD002101804180012181804B
:1035D0000021C180018170472DE9F04105460C466C
:1035E00000260127608808B9022600E00026A0888E
:1035F000012801D1022700E001272088A0B92389F2
:10360000A28861882846FFF78AFFE1882846FFF7ED
:103610007DFF23893A4631462846FFF74AFFE18875
:103620002846FFF739FF13E02389A28861882846DE
:10363000FFF73FFFE1882846FFF72EFF23893A4630
:1036400031462846FFF76BFFE1882846FFF75EFF0B
:10365000BDE8F0810146486B70470146886B7047B2
:103660000146C86B70470146086C70470A884B8852
:103670001A438B881A43CB881A430B891A434B8908
:103680001A438B891A43A0F8442070470021018017
:1036900041808180C180018141818181704731B148
:1036A000B0F8442042F40042A0F8442005E0B0F80D
:1036B0004420C2F30E02A0F84420704721B1828852
:1036C00042F00402828004E082884FF6FB731A40C5
:1036D0008280704721B1828842F00102828004E03A
:1036E00082884FF6FE731A40828070471AB1838930
:1036F0000B43838102E083898B43838170478182FE
:10370000704702460020138A0B400BB1012000E0F5
:1037100000207047CA430282704730B5024600203D
:1037200000230024158A05EA0103958905EA0104AE
:1037300013B10CB1012000E0002030BDCA43028269
:10374000704741EA0203A0F8483070471AB18389F4
:103750000B43838102E083898B438381704721B1CE
:10376000828842F00802828004E082884FF6F77374
:103770001A408280704701894FF6F872114001812A
:1037800070470A46002101894FF68F731940114393
:103790000181704730B504460D4629462046FFF7A3
:1037A000F0FF208940F00700208130BD2DE9F04175
:1037B00004460D4616461F46602D06D13B460122A3
:1037C00031462046FFF775FE05E03B4601223146B3
:1037D0002046FFF7A4FE29462046FFF7D2FF2089A6
:1037E00040F007002081BDE8F08130B50C46002193
:1037F0000189C9B24FF6FF7505EA03251543254334
:103800002943018130BD2DE9F04105460E4617469A
:103810009846002443463A4631462846FFF7E5FFDE
:103820002C894FF6F870044044F007044FF68F706F
:10383000044044F070042C81BDE8F081F0B50446EA
:103840000D4616461F463B46324629462046FFF7A0
:10385000CCFF208940F480402081F0BD82884FF663
:103860008F731A40828082880A438280704702895F
:103870004FF6F8731A40028102890A4302817047A9
:1038800002894FF67F731A40028102890A4302813E
:103890007047F0B50C4615461E4600210022002355
:1038A0000189028B038C4FF6F877394021434FF69C
:1038B000FC473A4040F201173A434FF6DD773B4070
:1038C0004FF6FF7707EA06172F433B430181028338
:1038D0000384F0BD21B1828842F08002828004E03E
:1038E00082884FF67F731A4082807047A0F850108C
:1038F000704700001AB101830023438302E0418333
:10390000002303837047024610690840884201D1B2
:10391000012070470020FCE7F0B506460F46002462
:1039200028E0072522E0335D4FF0010C0CFA05FC7E
:1039300003EA0C02B94B1B68998AB84B1B681869DB
:10394000FFF7D8FFB54A12689189B44A12689068A7
:103950000122FFF7CFFFB14A12689189AF4A12687E
:1039600090680022FFF7C6FF681E45B2002DDADA24
:10397000601CC4B2BC42D4DBF0BD2DE9F041054669
:103980000E46002430E000202855072728E0285D57
:103990004006000E2855A14A126891899F4A126874
:1039A00090680122FFF7A6FF012001F093FE9B4AD9
:1039B0001268918B994A12689069FFF7A4FF295DFC
:1039C00008432855012001F085FE944A1268918928
:1039D000924A126890680022FFF78CFF781E47B267
:1039E000002FD4DA601CC4B2B442CCDBBDE8F08155
:1039F00037B50C4615469DF800000090874A1268BE
:103A00009188864A126810680022FFF773FF01212F
:103A10006846FFF781FF29462046FFF7AEFF7F4A41
:103A2000126891887D4A126810680122FFF762FFD0
:103A30003EBD03B59DF8000040F080000090774A3D
:103A400012689188754A126810680022FFF752FFC9
:103A500001216846FFF760FF012101A8FFF75CFF25
:103A60006E4A126891886D4A126810680122FFF749
:103A700041FF0CBD38B50446012269460020FFF71E
:103A8000B7FF2CB19DF8000040F08000009004E0EA
:103A90009DF8000020F0800000909DF800100020AC
:103AA000FFF7C7FF38BD38B504460122694600203C
:103AB000FFF79EFF2CB19DF8000040F04000009001
:103AC00004E09DF8000020F0400000909DF80010F8
:103AD0000020FFF7AEFF38BD38B504460122694625
:103AE0000020FFF785FF032C05D19DF8000040F072
:103AF0001000009004E09DF8000020F010000090FD
:103B00009DF800100020FFF794FF38BD08B5012292
:103B100069460020FFF76CFF9DF8000040F0200090
:103B200000909DF800100020FFF783FF08BD70B5DE
:103B300004460D46394804600246126891880246E0
:103B4000126810680122FFF7D5FE344A1268918985
:103B5000324A126890680122FFF7CCFE2F4A1268A1
:103B6000918A2E4A126810690122FFF7C3FE284687
:103B7000FFF7B2FF0020FFF77DFF0020FFF793FF64
:103B800070BD30B52DED068B81B00120FFF772FFBF
:103B90000A2001F09FFDFFF7B9FF412001F09AFDD7
:103BA000022269460120FFF723FF9DF8000004026E
:103BB0009DF801000443641000EE104AB8EE400A7C
:103BC000DFED170A20EE200ADFED160A80EE201A3C
:103BD000B0EE418ADFED140A88EE200AF7EE000A03
:103BE00030EE600A10EE105A284604F05BFD41ECFE
:103BF0001A0B9FED0E0B53EC102B04F059F841EC0F
:103C0000190B03F06FFF08EE900A0020FFF732FF58
:103C1000B0EE680A01B0BDEC068B30BD2800002074
:103C20000000D743000000470000C8428F17D2E1D0
:103C3000218C6F3F10B500F0BBF810BD70B5044685
:103C4000002600F0D4F82546E11704EB11610912B3
:103C5000A02202EB4101C8B200F075F900F008F9AA
:103C6000E11704EB11610912A4EB0121C8B200F0C5
:103C70006AF900F0FDF800F0BAF8A12000F063F94D
:103C800000F0F6F8002000F08BF9064600F0D1F8BD
:103C9000304670BD70B504460E4600F0A8F82546C3
:103CA000E11704EB11610912A02202EB4101C8B235
:103CB00000F049F900F0DCF8E11704EB116109129A
:103CC000A4EB0121C8B200F03EF900F0D1F8304673
:103CD00000F039F900F0CCF800F0ABF80A2001F060
:103CE000F9FC70BD2DE9F04105460E46174600244B
:103CF00009E0E20026FA02F2D1B22A1990B2FFF7E7
:103D0000C9FF601CC4B2BC42F3DBBDE8F0812DE901
:103D1000F04107460C460026002509E03602391915
:103D2000491B491E88B2FFF789FF0644681CC5B2CB
:103D3000A542F3DB3046BDE8F08110B5FF20FFF768
:103D40007DFF0446552C01D1002010BD5521FF20D8
:103D5000FFF7A0FFFF20FFF771FF0446552C01D1AC
:103D60000020F2E70120F0E770B506460C46154644
:103D700008E03046721C96B2FFF760FF04F8010BB2
:103D8000681E85B2002DF4D170BD70B505460C4695
:103D9000164606E021782846FFF77CFF681C85B2AE
:103DA000641C301EA6F101018EB2F3D170BD00007B
:103DB0001CB50121022002F045FB4FF44070009039
:103DC00001208DF8040000208DF8060003208DF8F6
:103DD000050001208DF807006946894801F0B0FD13
:103DE0000120884908608849C1F8A4021CBD10B5AB
:103DF0008348006820F44020814908600846006834
:103E000040F48020086001207E49091D08607E4939
:103E1000C1F8A002042001F015FC00207949091D19
:103E20000860042001F00EFC00207749C1F8A002D0
:103E300010BD10B57248006820F440207049086039
:103E40000846006840F48020086000206D49086042
:103E50006D49C1F8A402042001F0F4FB0120694976
:103E600008606949C1F8A402042001F0EBFB10BD11
:103E700010B500246248006820F4402060490860C2
:103E800008460068086001205E49091D086001F0CD
:103E9000D9FB01205C49C1F8A00201F0D3FB07E087
:103EA000601CC4B2FA2C03DDFFF7C3FF012010BD74
:103EB00054487C3800680028F2D15249086000BF9D
:103EC000F5E710B500204F4908604D48006820F420
:103ED00040204B4908600846006840F48020086094
:103EE00000204949C1F8A402022001F0ABFB0120E7
:103EF00044490860022001F0A5FB00204249C1F8B6
:103F0000A00210BD10B500203E4908603C48006882
:103F100020F440203A4908600846006840F48020B8
:103F2000086001203849C1F8A402022001F08AFB90
:103F3000012034490860022001F084FB002032494E
:103F4000C1F8A00210BD70B504462D48006820F4E9
:103F500040202B4908600846006840F48020086033
:103F6000002028490860002517E0E0092549091DBF
:103F700008606006040E022001F064FB0120224963
:103F8000C1F8A002022001F05DFB00201D4908607D
:103F9000022001F057FB681CC5B2082DE5DB70BD9F
:103FA00070B5054600241648006820F440201449E6
:103FB0000860084600680860002616E000201149E5
:103FC0000860022001F03EFB01200F49C1F8A00269
:103FD0006006040E0B487C38006808B1601CC4B24F
:103FE000012001F02FFB701CC6B2082EE6DB15B9CC
:103FF000FFF788FF01E0FFF764FF204670BD000077
:1040000000040240A08240420080404208B5F848C7
:1040100000880090BDF8000008BD00BFF449891E6B
:104020000880704700BFF2490880704700B5FFF76D
:10403000EDFF00BDEE4A921E10804FF0D842A2F86C
:104040008010704770B506460C4615463046FFF79F
:10405000E4FF06E0FFF7EAFF04F8010B642001F03B
:10406000F1FA281EA5F10105F4D170BD00B5E149B2
:104070000889FFF7D2FF00BD00B5DE494889FFF788
:10408000CCFF00BDDA490880704710B5FFF7CEFFBE
:104090000446012001F0D6FAFFF7C8FF0446204687
:1040A00010BD30B504460D46D2498889FFF7B5FFEB
:1040B0002012FFF7B7FFE0B2FFF7B4FF1012FFF7CF
:1040C000B1FFD0B2FFF7AEFFCA49C889FFF7A5FF1D
:1040D0002812FFF7A7FFE8B2FFF7A4FF1812FFF7B7
:1040E000A1FFD8B2FFF79EFFFFF7C0FF30BD30B58C
:1040F00004460D462B46224629462046FFF7D1FFAF
:1041000030BD30B504460D4629462046FFF7EFFF87
:10411000B9480088FFF7B6FF30BD70B504460D46BC
:10412000B4480088A04203DDB2484088A84201DCC0
:10413000002070BD29462046FFF7D9FFFFF79CFFFE
:10414000FFF7A3FF06463046F3E770B50446A948DB
:104150000088A849498800FB01F6A6484088401E0F
:1041600083B2A4480088401E82B200210846FFF7AF
:1041700098FF002502E09E4804806D1CB542FAD3EA
:1041800070BD00B59FB001217A2002F05BF90121DA
:10419000084602F08FF94FF400401D9001208DF881
:1041A000780000208DF87A0002208DF87900012037
:1041B0008DF87B001DA9914801F0C2FB4CF23370D1
:1041C0001D9002208DF8780000208DF87A000320E1
:1041D0008DF8790001208DF87B001DA9884801F039
:1041E000AFFB4FF680701D9002208DF87800002004
:1041F0008DF87A0003208DF8790001208DF87B007E
:104200001DA9804801F09CFB4FF480501D900220B6
:104210008DF8780000208DF87A0003208DF8790061
:1042200001208DF87B001DA9774801F089FB4FF430
:1042300080501D9002208DF8780000208DF87A00C3
:1042400003208DF8790001208DF87B001DA96F48AF
:1042500001F076FB0C220021694801F0FCFB0C22E6
:104260000121674801F0F7FB0C220421644801F0AA
:10427000F2FB0C220521624801F0EDFB0C22082123
:104280005F4801F0E8FB0C2209215D4801F0E3FBE7
:104290000C220A215A4801F0DEFB0C220E2158485C
:1042A00001F0D9FB0C220F21554801F0D4FB0C2260
:1042B0000721544801F0CFFB0C220821514801F09E
:1042C000CAFB0C2209214F4801F0C5FB0C220A2130
:1042D0004C4801F0C0FB0C220B214A4801F0BBFB0B
:1042E0000C221146474801F0B6FB0C220D2145482F
:1042F00001F0B1FB0C220E21424801F0ACFB0C2274
:104300000F21404801F0A7FB0C2211463E4801F066
:10431000A2FB0C2211463D4801F09DFB0F200790A7
:10432000002008903C20099000200A900B900C90EF
:104330000D9009200090002001900820029000209C
:10434000039004900590069006200E9000200F9098
:10435000109010201190002012901490139015903E
:1043600016904FF480501790002018904FF4804022
:10437000199000201A9007A81B90CDF870D00EA8B5
:1043800001F0BDFB0121062001F044FC204800683B
:1043900020F00F004FF02041C1F81C010846D0F872
:1043A0001C0120F47060C1F81C010846D0F81C0103
:1043B00040F00400C1F81C010846D0F81C0140F48C
:1043C0008060C1F81C011FB000BD00B503462A2063
:1043D000084988812B20C8812C2008812E20488103
:1043E000C3B1012B22D0022B2CD0032B42D135E0BC
:1043F0008000006C900000202C000020000402408F
:10440000000C02400010024000140240001802405C
:104410001C0100A04FF4A070954908804FF4F07083
:10442000488048213620FFF705FE24E04FF4F07065
:104430008F4908804FF4A070488038213620FFF75C
:10444000F9FD18E04FF4A070894908804FF4F0702E
:10445000488088213620FFF7EDFD0CE04FF4F07026
:10446000834908804FF4A0704880E8213620FFF788
:10447000E1FD00E000BF00BF00BD10B5FFF781FE09
:10448000642001F027F9F120FFF7C7FD3620FFF780
:10449000C9FD0420FFF7C6FD0020FFF7C3FD3C2047
:1044A000FFF7C0FD0F20FFF7BDFD8F20FFF7BAFD1E
:1044B000F220FFF7B2FD1820FFF7B4FDA320FFF7AD
:1044C000B1FD1220FFF7AEFD0220FFF7ABFDB220D9
:1044D000FFF7A8FD1220FFF7A5FDFF20FFF7A2FDC3
:1044E0001020FFF79FFD0020FFF79CFDF820FFF74D
:1044F00094FD2120FFF796FD0420FFF793FDF9209E
:10450000FFF78BFD0020FFF78DFD0820FFF78AFDE8
:104510003620FFF782FD0820FFF784FDB420FFF767
:104520007CFD0020FFF77EFDC120FFF776FD4720D0
:10453000FFF778FDC520FFF770FD0020FFF772FD43
:10454000AF20FFF76FFD8020FFF76CFD0020FFF725
:1045500069FDE020FFF761FD0F20FFF763FD1F20DD
:10456000FFF760FD1C20FFF75DFD0C20FFF75AFDF3
:104570000F20FFF757FD0820FFF754FD4820FFF7F5
:1045800051FD9820FFF74EFD3720FFF74BFD0A2025
:10459000FFF748FD1320FFF745FD0420FFF742FD1C
:1045A0001120FFF73FFD0D20FFF73CFD0020FFF736
:1045B00039FDE120FFF731FD0F20FFF733FD3220F9
:1045C000FFF730FD2E20FFF72DFD0B20FFF72AFD12
:1045D0000D20FFF727FD0520FFF724FD4720FFF7FB
:1045E00021FD7520FFF71EFD3720FFF71BFD06207C
:1045F000FFF718FD1020FFF715FD0320FFF712FD50
:104600002420FFF70FFD2020FFF70CFD0020FFF70F
:1046100009FD3A20FFF701FD5520FFF703FD1120AA
:10462000FFF7FBFC3620FFF7F8FC2820FFF7FAFC29
:10463000782001F04FF82920FFF7EFFC0020FFF76A
:10464000C4FE01200B4908604FF6FF70FFF77DFDA7
:1046500010BD08B50020009004226946D320FFF762
:10466000F1FC9DF803009DF8021040EA012008BD0E
:1046700090000020BC82404270B50446002500BF77
:1046800017E004F0800018B10120FE49086002E044
:104690000020FC4908606006040E0020FA4908600A
:1046A000012000F0CFFF0120F849C1F88002681C0A
:1046B000C5B2082DE5DB70BD70B5064600250024A7
:1046C0000020F1490860F249C1F8AC02F1490860E4
:1046D0003046FFF7D1FF062000F0B4FF0020EB4981
:1046E000C1F88002012000F0ADFF0120E64908601A
:1046F00000F0A8FF0020E549C1F8800200BF15E0E6
:104700004FF6FF7000EA44040020DF4908600120F2
:1047100000F098FF0120DD49C1F88002DA487838BE
:10472000006808B1601C84B2681CC5B2102DE7DBBC
:1047300024110120D7490860204670BD2DE9FE43B1
:1047400080460027002406E04046FFF7B5FF2DF81D
:104750001400601C84B2052CF6DB002416E0601CFB
:1047600085B20FE03DF814003DF81510884207DDD2
:104770003DF814603DF815002DF814002DF8156073
:10478000681C85B2052DEDDB601C84B2042CE6DBD1
:104790000027012405E03DF81400384487B2601C6E
:1047A00084B2042CF7DB032097FBF0F086B230468E
:1047B000BDE8FE832DE9F04104460D46B648007879
:1047C000FFF7BCFF0646B5480078FFF7B7FF07467E
:1047D00026802F800120BDE8F0817FB504460D467C
:1047E00002A903A8FFF7E6FF064616B9002004B0A9
:1047F00070BD694601A8FFF7DDFF06460EB900202F
:10480000F5E7BDF80400BDF80C10884206DCBDF8E1
:104810000C10BDF80400323081420CDBBDF80C00F6
:10482000BDF80410884236DCBDF80410BDF80C0059
:10483000323081422FDABDF80000BDF808108842FE
:1048400006DCBDF80810BDF80000323081420CDBF8
:10485000BDF80800BDF8001088421CDCBDF800104F
:10486000BDF808003230814215DABDF80C10BDF8F1
:104870000420881800EBD071C1F34F012180BDF8EE
:104880000810BDF80020881800EBD071C1F34F016B
:1048900029800120ABE70020A9E7F8B504460D46C2
:1048A00016467F48068004F10D018AB2193988B294
:1048B0002B462946FBF74FFD05F10D0083B2193851
:1048C00081B222462046FBF746FD6A1C91B2621C6B
:1048D00090B2FFF716FC6A1C91B2621E90B2FFF70D
:1048E00010FC6A1E91B2621C90B2FFF70AFC6A1EAD
:1048F00091B2621E90B2FFF704FC002006230090E4
:104900006748028829462046FBF7EEFDF8BD70B5E2
:1049100004460D4616466248068029462046FFF7A3
:10492000F0FB611C88B22946FFF7EBFB681C81B2E3
:104930002046FFF7E6FB6A1C91B2621C90B2FFF7BB
:10494000E0FB70BD10B504464F487C380068002875
:104950004BD124B15349881EFFF73FFF34E0514942
:10496000881EFFF73AFF78B34E481238B0F920009E
:1049700000EE100AB8EEC00A4A48123890ED061A46
:10498000008A00EE900AF8EE600A01EE200ABCEE02
:10499000C00A10EE100A4349123908820846B0F9DD
:1049A000220000EE100AB8EEC00A084690ED071A81
:1049B000408A00EE900AF8EE600A01EE200ABCEE92
:1049C000C00A10EE100A488236481238007D00F006
:1049D000800010BBC0203349123908750846008A90
:1049E00088810846408AC88117E02E481238007D29
:1049F00000F0800040B12B481238007D20F080008C
:104A000028491239087508E00020264912398881A2
:104A1000C8814FF6FF700882488222481238007D14
:104A200000F0800010BD10B51E48123890ED060A47
:104A3000DFED1D0A20EE200ABDEEC00A10EE104A7E
:104A4000042221462820FFF74DF91648123890ED30
:104A5000070ADFED150A20EE200ABDEEC00A10EEAF
:104A6000104A042221462C20FFF73CF90D48123849
:104A7000B0F9201002223020FFF734F9094812382B
:104A800014E00000AC8242428082404200804042FA
:104A900000804242B40241425C0000205D000020E0
:104AA0002C0000204600002020BCBE4CB0F9221093
:104AB00002223220FFF716F9FB4890F82410342028
:104AC000FFF7E8F80A2421463520FFF7E3F810BD88
:104AD00010B53520FFF7B2F804460A2C46D1042160
:104AE0002820FFF714F9044600EE104AB8EEC00A79
:104AF0005FED130A80EE201AEB4880ED061A0421C0
:104B00002C20FFF704F9044600EE104AB8EEC00A64
:104B10005FED1B0A80EE201AE34880ED071A0221A0
:104B20003020FFF7F4F800B2DF4908840221322078
:104B3000FFF7EDF800B2DC4948843420FFF77EF837
:104B4000D94981F82400084690F8240030B190201B
:104B5000D6490870D020D649087005E0D020D34946
:104B600008709020D2490870012010BD0020FCE799
:104B70002DE9F84F04460D4617461E46DDE90CABFD
:104B8000DDE90A894FF47840CA4908800120CAA3A8
:104B900010228C2100902820FBF7A8FE0120C7A33B
:104BA00010228C2100907820FBF7A0FE0120C4A3E6
:104BB0001022A02100902820FBF798FE0120C1A31D
:104BC0001022A02100907820FBF790FE0120BEA3C8
:104BD0001022B42100902820FBF788FE0120BBA3FF
:104BE0001022B42100907820FBF780FE0120B8A3AA
:104BF0001022C82100902820FBF778FE0120B5A3E1
:104C00001022C82100907820FBF770FE0120B2A38B
:104C10001022DC2100902820FBF768FE10200423DE
:104C200022468C2100904020FBF79AFE102004239E
:104C30002A468C2100909020FBF792FE102004233E
:104C40003A46A02100904020FBF78AFE1020042362
:104C50003246A02100909020FBF782FE1020042312
:104C60004246B42100904020FBF77AFE1020042336
:104C70004A46B42100909020FBF772FE10200423D6
:104C80005246C82100904020FBF76AFE1020042302
:104C90005A46C82100909020FBF762FE10200323A3
:104CA0000090DC2160200E9AFBF75AFEBDE8F88FD9
:104CB0002DE9F0472DED068B8AB04FF00008C14674
:104CC00000BF1F207B4908804FF6FF708449088091
:104CD000FFF73BFA4FF47840764908804FF6FF70B3
:104CE000FFF733FA00207349088001207DA31022CA
:104CF000282100900A20FBF7F9FD012080A3102253
:104D0000382100900A20FBF7F1FD012083A3102237
:104D1000482100900A20FBF7E9FD012086A310221C
:104D2000582100900A20FBF7E1FD012089A3102201
:104D3000682100900A20FBF7D9FD4FF47842142136
:104D40000846FFF7AAFD0020574908759FED850A20
:104D5000084680ED060AE6E353484168012088478B
:104D60005148007D00F0C00040286FD14FF000098D
:104D70004D48007D20F040004B4908750846008AE8
:104D800006A921F828004848408A01EB880148809C
:104D900008F1010000F0FF08B8F1010F09D0B8F1E7
:104DA000020F16D0B8F1030F26D0B8F1040F0FD1BF
:104DB00038E04FF6FF7214210846FFF76EFD6A498E
:104DC0000988143988B24FF478421421FFF765FD41
:104DD0009AE365490988143988B24FF6FF721421A5
:104DE000FFF75BFD60484088143881B24FF4784289
:104DF0001420FFF752FD87E35B484088143881B2E6
:104E00004FF6FF721420FFF748FD574A5288143AB4
:104E100091B2554A1288143A90B24FF47842FFF793
:104E20003CFD71E3BDF81810BDF81C20881A00285D
:104E300001DB014600E041420C46BDF81A20BDF8F6
:104E40001E10501A002802DB014601E05DE34142DA
:104E50000D4664436D43601903F0EBF841EC1A0B07
:104E6000B0EE4A0AF0EE6A0A02F0E2FDB0EE409AB5
:104E7000F0EE609A51EC190B03F0AEF886B2BDF873
:104E80002010BDF82420881A002801DB014600E02C
:104E900041420C46BDF82220BDF82610501A0028C9
:104EA00064DB014663E061E0340000205C00002028
:104EB0005D0000202C00002078313A0079313A0062
:104EC00078323A0079323A0078333A0079333A004E
:104ED00078343A0079343A006661632069733A00A5
:104EE0002E000020506C6561736520757365207419
:104EF0006865207374796C757320636C69636B00EB
:104F00007468652063726F7373206F6E20746865B8
:104F10002073637265656E2E000000005468652082
:104F200063726F73732077696C6C20616C77617941
:104F300073206D6F76650000756E74696C207468FF
:104F4000652073637265656E2061646A7573746D44
:104F5000656E7400697320636F6D706C6574656451
:104F60002E000000000000009000002041420D468D
:104F700064436D43601903F05CF841EC1A0BB0EE2A
:104F80004A0AF0EE6A0A02F053FDB0EE409AF0EEE3
:104F9000609A51EC190B03F01FF887B200EE106A0B
:104FA000F8EE400A00EE107AB8EE400A80EE801A61
:104FB00011EE10AA504603F075FB41EC180B9FED63
:104FC000FE0B53EC102B51EC180B03F045F80AD3F1
:104FD0009FEDFB0B53EC102B51EC180B03F076F903
:104FE00001D306B1CFBB4FF00008F74A5288143AFC
:104FF00091B2F54A1288143A90B24FF6FF72FFF759
:105000004CFC4FF4784214210846FFF746FC9FED14
:10501000EF0B53EC102B51EC180B03F059F841EC4B
:10502000190B02F0D9FF1FFA80FABDF82600BDF86F
:105030002410BDF82220CDE9030ACDE90121BDF8F5
:1050400020000090BDF81E30BDF81C20BDF81A10DD
:10505000BDF81800FFF78CFD65E2FFE7BDF81810FA
:10506000BDF82020881A002801DB014600E04142FB
:105070000C46BDF81A20BDF82210501A002801DB9A
:10508000014600E041420D4664436D43601902F061
:10509000D0FF41EC1A0BB0EE4A0AF0EE6A0A02F0B9
:1050A000C7FCB0EE409AF0EE609A51EC190B02F09A
:1050B00093FF86B2BDF81C10BDF82420881A002882
:1050C00001DB014600E041420C46BDF81E20BDF860
:1050D0002610501A002801DB014600E041420D462F
:1050E00064436D43601902F0A4FF41EC1A0BB0EE6B
:1050F0004A0AF0EE6A0A02F09BFCB0EE409AF0EE2B
:10510000609A51EC190B02F067FF87B200EE106A4B
:10511000F8EE400A00EE107AB8EE400A80EE801AEF
:1051200011EE10AA504603F0BDFA41EC180B9FEDAA
:10513000A20B53EC102B51EC180B02F08DFF08D38F
:105140009FED9F0B53EC102B51EC180B03F0BEF8A6
:1051500039D24FF000089C4A5288143A91B29A4AC8
:105160001288143A90B24FF6FF72FFF796FB4FF495
:10517000784214210846FFF790FB9FED940B53EC07
:10518000102B51EC180B02F0A3FF41EC190B02F0AD
:1051900023FF1FFA80FABDF82610BDF82400BDF8E1
:1051A0002220CDE9031ACDE90120BDF820000090AE
:1051B000BDF81E30BDF81C20BDF81A10BDF818004F
:1051C000FFF7D6FCAFE1BDF81C10BDF82020881A0F
:1051D000002801DB014600E041420C46BDF81E20DC
:1051E000BDF82210501A002801DB014600E04142C0
:1051F0000D4664436D43601902F01BFF41EC1A0B2E
:10520000B0EE4A0AF0EE6A0A02F012FCB0EE409AE2
:10521000F0EE609A51EC190B02F0DEFE86B2BDF89A
:105220001810BDF82420881A002801DB014600E090
:1052300041420C46BDF81A20BDF82610501A00282D
:1052400001DB014600E041420D4664436D436019B5
:1052500002F0EFFE41EC1A0BB0EE4A0AF0EE6A0AD9
:1052600002F0E6FBB0EE409AF0EE609A51EC190BBA
:1052700002F0B2FE87B200EE106AF8EE400A00EECD
:10528000107AB8EE400A80EE801A11EE10AA50464D
:1052900003F008FA41EC180B9FED470B53EC102B71
:1052A00051EC180B02F0D8FE08D39FED450B53ECE0
:1052B000102B51EC180B03F009F839D24FF000080D
:1052C000414A5288143A91B23F4A1288143A90B235
:1052D0004FF6FF72FFF7E1FA4FF4784214210846C7
:1052E000FFF7DBFA9FED390B53EC102B51EC180B49
:1052F00002F0EEFE41EC190B02F06EFE1FFA80FA8E
:10530000BDF82610BDF82400BDF82220CDE9031A0F
:10531000CDE90120BDF820000090BDF81E30BDF899
:105320001C20BDF81A10BDF81800FFF721FCFAE0A8
:10533000BDF81C00BDF81810401A00EE100AF8EE77
:10534000C00A21480088283800EE100AB8EEC00ACA
:1053500080EE201A1F4880ED061ABDF81C00BDF82B
:105360001810084400EE100AF8EEC00A164800882B
:1053700000EE100AB8EE400A164890ED061A01EE4B
:10538000600AF0EE000A80EE201ABDEEC10A10EEAF
:10539000100A00B20F490884BDF82200BDF81A10A7
:1053A000401A00EE100AF8EEC00A07484088283874
:1053B00000EE100A10E00000666666666666EE3F64
:1053C000CDCCCCCCCCCCF03F900000200000000035
:1053D0000000594034000020B8EEC00A80EE201AC8
:1053E000784880ED071ABDF82200BDF81A1008446D
:1053F00000EE100AF8EEC00A7348408800EE100A6A
:10540000B8EE400A6F4890ED071A01EE600AF0EE20
:10541000000A80EE201ABDEEC10A10EE100A00B29A
:10542000684948840A4692ED060ABDEEC00A10EEAD
:10543000101A002901DB0A4600E04A42022A0DDC6C
:10544000604A92ED070ABDEEC00A10EE100A00286D
:1054500001DB024600E04242022A37DD4FF000083D
:10546000594A5288143A91B2574A1288143A90B263
:105470004FF6FF72FFF711FA4FF4784214210846F5
:10548000FFF70BFA012051A310221A2100902820C7
:10549000FBF72CFA4B4890F8240008B9012000E0F3
:1054A0000020484981F82400084690F8240030B1D3
:1054B00090204B490870D0204A49087005E0D02060
:1054C000474908709020474908702CE01F20464942
:1054D00008804FF6FF70FEF738FE012043A310222C
:1054E0006E2100902320FBF701FA4FF47A7000F050
:1054F000F1F8FFF798FA4FF6FF70FEF726FE0AB0B4
:10550000BDEC068BBDE8F08700BF0A2000F0E2F892
:1055100009F101001FFA80F9B9F57A7F02DDFFF782
:10552000D7FA01E000BF17E400BF00BFE7E71CB5F2
:105530000121262000F086FF0620009000208DF833
:1055400004008DF8060003208DF8050001208DF879
:10555000070069462B4800F0F3F9012000908DF810
:1055600004006946274800F0EBF94FF40050009022
:1055700001208DF804006946234800F0E1F94FF45A
:105580000060009001208DF8040069461F4800F07B
:10559000D7F90C491231881EFFF70CF9FEF74AFBC8
:1055A000FFF796FA08B100201CBD4FF6FF70FEF71A
:1055B000CCFDFFF77DFBFFF736FAFFF789FA0120F4
:1055C000F2E7000034000020900000205450204EEC
:1055D00065656420726561646A75737421000000FA
:1055E0005C0000205D0000202C000020546F7563DB
:1055F000682053637265656E2041646A7573742018
:105600004F4B2100000402400008024000140240F9
:1056100010B504466FF0040000F0EEF8E11704EB5B
:105620005171C1F3C701394A11701046007800EB7F
:105630004001C1EBC0104FF6FF7101EAC0003449D0
:10564000088010BD0146314A12784A434FF0E023EA
:105650005A6100229A611A46126942F001021A61E7
:1056600000BF4FF0E022106900F001021AB100F40F
:105670008032002AF5D04FF0E022126922F00102B8
:105680004FF0E0231A6100229A6170470146204AD8
:1056900012884A434FF0E0235A6100229A611A4669
:1056A000126942F001021A6100BF4FF0E022106956
:1056B00000F001021AB100F48032002AF5D04FF058
:1056C000E022126922F001024FF0E0231A61002269
:1056D0009A61704770B504464FF4077094FBF0F080
:1056E000C6B24FF4077094FBF0F100FB114085B295
:1056F00005E04FF40770FFF7C9FF701EC6B2002E19
:10570000F7D115B12846FFF7C1FF70BD6400002036
:10571000660000200948804709480047FEE7FEE789
:10572000FEE7FEE7FEE7FEE7FEE7FEE7FEE7FEE751
:1057300004480549054A064B70470000411100081E
:10574000890100080001002000070020000300205C
:105750000003002032490143324A1160704770B59E
:10576000002100230F22C4781CB32E4C246804F4BB
:10577000E064C4F5E064C4F30721C1F10404E3B2BA
:105780000A4144789C40E1B28478144021430C07DC
:10579000210E254C05786155047804F01F0501247D
:1057A000AC4005786D11AD0005F1E025C5F800416C
:1057B00009E0047804F01F050124AC401B4D067875
:1057C000761145F8264070BD194A0A400243154B30
:1057D0001B1F1A60704739B1124A121D126802432A
:1057E000104B1B1D1A6006E00E4A121D1268824300
:1057F0000C4B1B1D1A607047042808D14FF0E021A4
:10580000096941F004014FF0E022116107E04FF017
:10581000E021096921F004014FF0E0221161704795
:105820000000FA050CED00E000E400E080E100E09B
:1058300080FFFF1F10B504469848844208D101211B
:10584000084600F06AFE0021012000F066FE76E0C6
:105850009348844208D10121022000F05EFE00211D
:10586000022000F05AFE6AE08E48844208D10121ED
:10587000042000F052FE0021042000F04EFE5EE005
:105880008948844208D10121082000F046FE002109
:10589000082000F042FE52E08448844208D10121F1
:1058A000102000F03AFE0021102000F036FE46E005
:1058B0007F48844208D10121202000F02EFE0021E3
:1058C000202000F02AFE3AE07A48844208D10121E3
:1058D000402000F022FE0021402000F01EFE2EE0BD
:1058E0007548844208D10121802000F016FE002175
:1058F000802000F012FE22E07048844208D101218D
:10590000801500F00AFE0021A01500F006FE16E04A
:105910006B48844208D10121401500F0FEFD0021B2
:10592000601500F0FAFD0AE06648844207D10121C3
:10593000001500F0F2FD0021201500F0EEFD10BD75
:10594000F0B50A4600210023002400BF3DE00125F8
:1059500005FA01F3156805EA03049C4234D1056891
:105960004F000326BE40B543056015794E00B54093
:105970000668354305601579012D02D01579022D91
:1059800016D185684F000326BE40B5438560557922
:105990004E00B540866835438560456801268E40D7
:1059A000B5434560456896798E40B6B2354345604B
:1059B000C5684F000326BE40B543C560D5794E008B
:1059C000B540C6683543C560491C1029BFD3F0BD3A
:1059D0004FF6FF7101600021017141718171C17148
:1059E000704708B54FF480320092009A0A43009243
:1059F000009AC261C161009AC261C2690092C26923
:105A0000009208BD0246002013690B400BB1012033
:105A100000E0002070470146086980B270470246E6
:105A2000002053690B400BB1012000E000207047BB
:105A30000146486980B270470183704741837047CF
:105A40000AB1018300E041837047416170474269B8
:105A50004A4042617047F0B5002300244D07ED0E27
:105A600002FA05F3CE1000F1200555F826504E0736
:105A7000F70E0F26BE40B543CF1000F1200646F8C2
:105A80002750CE1000F1200555F8265045EA0304B2
:105A9000CE1000F1200545F82640F0BD0000024080
:105AA0000004024000080240000C024000100240C6
:105AB0000014024000180240001C02400020024076
:105AC000002402400028024030B943F2DB0281008A
:105AD000A1F1C0410A6005E043F2D2028100A1F1C8
